{
  "contractName": "AImodelMarketplace",
  "abi": [
    {
      "inputs": [],
      "stateMutability": "nonpayable",
      "type": "constructor"
    },
    {
      "anonymous": false,
      "inputs": [
        {
          "indexed": false,
          "internalType": "address",
          "name": "owner",
          "type": "address"
        },
        {
          "indexed": false,
          "internalType": "uint256",
          "name": "amount",
          "type": "uint256"
        }
      ],
      "name": "FundsWithdrawn",
      "type": "event"
    },
    {
      "anonymous": false,
      "inputs": [
        {
          "indexed": false,
          "internalType": "uint256",
          "name": "modelId",
          "type": "uint256"
        },
        {
          "indexed": false,
          "internalType": "string",
          "name": "name",
          "type": "string"
        },
        {
          "indexed": false,
          "internalType": "address",
          "name": "creator",
          "type": "address"
        },
        {
          "indexed": false,
          "internalType": "uint256",
          "name": "price",
          "type": "uint256"
        }
      ],
      "name": "ModelListed",
      "type": "event"
    },
    {
      "anonymous": false,
      "inputs": [
        {
          "indexed": false,
          "internalType": "uint256",
          "name": "modelId",
          "type": "uint256"
        },
        {
          "indexed": false,
          "internalType": "address",
          "name": "buyer",
          "type": "address"
        }
      ],
      "name": "ModelPurchased",
      "type": "event"
    },
    {
      "anonymous": false,
      "inputs": [
        {
          "indexed": false,
          "internalType": "uint256",
          "name": "modelId",
          "type": "uint256"
        },
        {
          "indexed": false,
          "internalType": "uint8",
          "name": "rating",
          "type": "uint8"
        },
        {
          "indexed": false,
          "internalType": "address",
          "name": "rater",
          "type": "address"
        }
      ],
      "name": "ModelRated",
      "type": "event"
    },
    {
      "inputs": [
        {
          "internalType": "uint256",
          "name": "",
          "type": "uint256"
        }
      ],
      "name": "models",
      "outputs": [
        {
          "internalType": "string",
          "name": "name",
          "type": "string"
        },
        {
          "internalType": "string",
          "name": "description",
          "type": "string"
        },
        {
          "internalType": "uint256",
          "name": "price",
          "type": "uint256"
        },
        {
          "internalType": "address payable",
          "name": "creator",
          "type": "address"
        },
        {
          "internalType": "uint8",
          "name": "ratingCount",
          "type": "uint8"
        },
        {
          "internalType": "uint256",
          "name": "totalRating",
          "type": "uint256"
        }
      ],
      "stateMutability": "view",
      "type": "function"
    },
    {
      "inputs": [],
      "name": "owner",
      "outputs": [
        {
          "internalType": "address",
          "name": "",
          "type": "address"
        }
      ],
      "stateMutability": "view",
      "type": "function"
    },
    {
      "inputs": [
        {
          "internalType": "string",
          "name": "name",
          "type": "string"
        },
        {
          "internalType": "string",
          "name": "description",
          "type": "string"
        },
        {
          "internalType": "uint256",
          "name": "price",
          "type": "uint256"
        }
      ],
      "name": "listModel",
      "outputs": [],
      "stateMutability": "payable",
      "type": "function"
    },
    {
      "inputs": [
        {
          "internalType": "uint256",
          "name": "modelId",
          "type": "uint256"
        }
      ],
      "name": "purchaseModel",
      "outputs": [],
      "stateMutability": "payable",
      "type": "function"
    },
    {
      "inputs": [
        {
          "internalType": "uint256",
          "name": "modelId",
          "type": "uint256"
        },
        {
          "internalType": "uint8",
          "name": "rating",
          "type": "uint8"
        }
      ],
      "name": "rateModel",
      "outputs": [],
      "stateMutability": "nonpayable",
      "type": "function"
    },
    {
      "inputs": [],
      "name": "withdrawFunds",
      "outputs": [],
      "stateMutability": "nonpayable",
      "type": "function"
    },
    {
      "inputs": [
        {
          "internalType": "uint256",
          "name": "modelId",
          "type": "uint256"
        }
      ],
      "name": "getModelDetails",
      "outputs": [
        {
          "internalType": "string",
          "name": "",
          "type": "string"
        },
        {
          "internalType": "string",
          "name": "",
          "type": "string"
        },
        {
          "internalType": "uint256",
          "name": "",
          "type": "uint256"
        },
        {
          "internalType": "address",
          "name": "",
          "type": "address"
        },
        {
          "internalType": "uint256",
          "name": "",
          "type": "uint256"
        },
        {
          "internalType": "address[]",
          "name": "",
          "type": "address[]"
        }
      ],
      "stateMutability": "view",
      "type": "function"
    },
    {
      "inputs": [],
      "name": "totalModels",
      "outputs": [
        {
          "internalType": "uint256",
          "name": "",
          "type": "uint256"
        }
      ],
      "stateMutability": "view",
      "type": "function"
    }
  ],
  "bytecode": "0x608060405234801561001057600080fd5b5033600160006101000a81548173ffffffffffffffffffffffffffffffffffffffff021916908373ffffffffffffffffffffffffffffffffffffffff1602179055506118df806100616000396000f3fe60806040526004361061007b5760003560e01c806331fc042f1161004e57806331fc042f146102665780636a030ca91461040f5780638da5cb5b1461057d578063dc746862146105d45761007b565b8063017d71961461008057806312ee1c0e146100ab5780631c788a9a1461020757806324600fc31461024f575b600080fd5b34801561008c57600080fd5b50610095610602565b6040518082815260200191505060405180910390f35b610205600480360360608110156100c157600080fd5b81019080803590602001906401000000008111156100de57600080fd5b8201836020820111156100f057600080fd5b8035906020019184600183028401116401000000008311171561011257600080fd5b91908080601f016020809104026020016040519081016040528093929190818152602001838380828437600081840152601f19601f8201169050808301925050505050505091929192908035906020019064010000000081111561017557600080fd5b82018360208201111561018757600080fd5b803590602001918460018302840111640100000000831117156101a957600080fd5b91908080601f016020809104026020016040519081016040528093929190818152602001838380828437600081840152601f19601f8201169050808301925050505050505091929192908035906020019092919050505061060e565b005b34801561021357600080fd5b5061024d6004803603604081101561022a57600080fd5b8101908080359060200190929190803560ff169060200190929190505050610949565b005b34801561025b57600080fd5b50610264610bdb565b005b34801561027257600080fd5b5061029f6004803603602081101561028957600080fd5b8101908080359060200190929190505050610db1565b6040518080602001806020018781526020018673ffffffffffffffffffffffffffffffffffffffff1673ffffffffffffffffffffffffffffffffffffffff1681526020018581526020018060200184810384528a818151815260200191508051906020019080838360005b8381101561032557808201518184015260208101905061030a565b50505050905090810190601f1680156103525780820380516001836020036101000a031916815260200191505b50848103835289818151815260200191508051906020019080838360005b8381101561038b578082015181840152602081019050610370565b50505050905090810190601f1680156103b85780820380516001836020036101000a031916815260200191505b50848103825285818151815260200191508051906020019060200280838360005b838110156103f45780820151818401526020810190506103d9565b50505050905001995050505050505050505060405180910390f35b34801561041b57600080fd5b506104486004803603602081101561043257600080fd5b81019080803590602001909291905050506110ad565b6040518080602001806020018781526020018673ffffffffffffffffffffffffffffffffffffffff1673ffffffffffffffffffffffffffffffffffffffff1681526020018560ff1660ff168152602001848152602001838103835289818151815260200191508051906020019080838360005b838110156104d65780820151818401526020810190506104bb565b50505050905090810190601f1680156105035780820380516001836020036101000a031916815260200191505b50838103825288818151815260200191508051906020019080838360005b8381101561053c578082015181840152602081019050610521565b50505050905090810190601f1680156105695780820380516001836020036101000a031916815260200191505b509850505050505050505060405180910390f35b34801561058957600080fd5b50610592611253565b604051808273ffffffffffffffffffffffffffffffffffffffff1673ffffffffffffffffffffffffffffffffffffffff16815260200191505060405180910390f35b610600600480360360208110156105ea57600080fd5b8101908080359060200190929190505050611279565b005b60008080549050905090565b60008111610684576040517f08c379a000000000000000000000000000000000000000000000000000000000815260040180806020018281038252601f8152602001807f5072696365206d7573742062652067726561746572207468616e207a65726f0081525060200191505060405180910390fd5b8034146106dc576040517f08c379a000000000000000000000000000000000000000000000000000000000815260040180806020018281038252603a815260200180611870603a913960400191505060405180910390fd5b60008080549050905060006040518060e001604052808681526020018581526020018481526020013373ffffffffffffffffffffffffffffffffffffffff16815260200160006040519080825280602002602001820160405280156107505781602001602082028038833980820191505090505b508152602001600060ff1681526020016000815250908060018154018082558091505060019003906000526020600020906008020160009091909190915060008201518160000190805190602001906107aa92919061168e565b5060208201518160010190805190602001906107c792919061168e565b506040820151816002015560608201518160030160006101000a81548173ffffffffffffffffffffffffffffffffffffffff021916908373ffffffffffffffffffffffffffffffffffffffff160217905550608082015181600401908051906020019061083592919061170e565b5060a08201518160060160006101000a81548160ff021916908360ff16021790555060c0820151816007015550507fabc397ccc80c841b298c907d59647c74c037c83fa022c96a656586ade33b74b68185338560405180858152602001806020018473ffffffffffffffffffffffffffffffffffffffff1673ffffffffffffffffffffffffffffffffffffffff168152602001838152602001828103825285818151815260200191508051906020019080838360005b838110156109065780820151818401526020810190506108eb565b50505050905090810190601f1680156109335780820380516001836020036101000a031916815260200191505b509550505050505060405180910390a150505050565b60008054905082106109c3576040517f08c379a00000000000000000000000000000000000000000000000000000000081526004018080602001828103825260148152602001807f4d6f64656c20646f6573206e6f7420657869737400000000000000000000000081525060200191505060405180910390fd5b60008083815481106109d157fe5b9060005260206000209060080201905060018260ff16101580156109f9575060058260ff1611155b610a6b576040517f08c379a000000000000000000000000000000000000000000000000000000000815260040180806020018281038252601e8152602001807f526174696e67206d757374206265206265747765656e203120616e642035000081525060200191505060405180910390fd5b3373ffffffffffffffffffffffffffffffffffffffff168160030160009054906101000a900473ffffffffffffffffffffffffffffffffffffffff1673ffffffffffffffffffffffffffffffffffffffff161415610b14576040517f08c379a00000000000000000000000000000000000000000000000000000000081526004018080602001828103825260298152602001806118476029913960400191505060405180910390fd5b80600601600081819054906101000a900460ff168092919060010191906101000a81548160ff021916908360ff160217905550508160ff1681600701600082825401925050819055507f4129c8696bb756892ebbda9c4396a685357b1f8eddd505fee0f194e56f8c9a2b838333604051808481526020018360ff1660ff1681526020018273ffffffffffffffffffffffffffffffffffffffff1673ffffffffffffffffffffffffffffffffffffffff168152602001935050505060405180910390a1505050565b600160009054906101000a900473ffffffffffffffffffffffffffffffffffffffff1673ffffffffffffffffffffffffffffffffffffffff163373ffffffffffffffffffffffffffffffffffffffff1614610c81576040517f08c379a00000000000000000000000000000000000000000000000000000000081526004018080602001828103825260218152602001806118016021913960400191505060405180910390fd5b600047905060008111610cfc576040517f08c379a00000000000000000000000000000000000000000000000000000000081526004018080602001828103825260148152602001807f4e6f2066756e647320746f20776974686472617700000000000000000000000081525060200191505060405180910390fd5b3373ffffffffffffffffffffffffffffffffffffffff166108fc829081150290604051600060405180830381858888f19350505050158015610d42573d6000803e3d6000fd5b507feaff4b37086828766ad3268786972c0cd24259d4c87a80f9d3963a3c3d999b0d3382604051808373ffffffffffffffffffffffffffffffffffffffff1673ffffffffffffffffffffffffffffffffffffffff1681526020018281526020019250505060405180910390a150565b606080600080600060606000805490508710610e35576040517f08c379a00000000000000000000000000000000000000000000000000000000081526004018080602001828103825260148152602001807f4d6f64656c20646f6573206e6f7420657869737400000000000000000000000081525060200191505060405180910390fd5b6000808881548110610e4357fe5b906000526020600020906008020190506000808260060160009054906101000a900460ff1660ff1611610e77576000610e9a565b8160060160009054906101000a900460ff1660ff16826007015481610e9857fe5b045b9050816000018260010183600201548460030160009054906101000a900473ffffffffffffffffffffffffffffffffffffffff168486600401858054600181600116156101000203166002900480601f016020809104026020016040519081016040528092919081815260200182805460018160011615610100020316600290048015610f685780601f10610f3d57610100808354040283529160200191610f68565b820191906000526020600020905b815481529060010190602001808311610f4b57829003601f168201915b50505050509550848054600181600116156101000203166002900480601f0160208091040260200160405190810160405280929190818152602001828054600181600116156101000203166002900480156110045780601f10610fd957610100808354040283529160200191611004565b820191906000526020600020905b815481529060010190602001808311610fe757829003601f168201915b505050505094508292508080548060200260200160405190810160405280929190818152602001828054801561108f57602002820191906000526020600020905b8160009054906101000a900473ffffffffffffffffffffffffffffffffffffffff1673ffffffffffffffffffffffffffffffffffffffff1681526020019060010190808311611045575b50505050509050975097509750975097509750505091939550919395565b600081815481106110ba57fe5b9060005260206000209060080201600091509050806000018054600181600116156101000203166002900480601f0160208091040260200160405190810160405280929190818152602001828054600181600116156101000203166002900480156111665780601f1061113b57610100808354040283529160200191611166565b820191906000526020600020905b81548152906001019060200180831161114957829003601f168201915b505050505090806001018054600181600116156101000203166002900480601f0160208091040260200160405190810160405280929190818152602001828054600181600116156101000203166002900480156112045780601f106111d957610100808354040283529160200191611204565b820191906000526020600020905b8154815290600101906020018083116111e757829003601f168201915b5050505050908060020154908060030160009054906101000a900473ffffffffffffffffffffffffffffffffffffffff16908060060160009054906101000a900460ff16908060070154905086565b600160009054906101000a900473ffffffffffffffffffffffffffffffffffffffff1681565b60008054905081106112f3576040517f08c379a00000000000000000000000000000000000000000000000000000000081526004018080602001828103825260148152602001807f4d6f64656c20646f6573206e6f7420657869737400000000000000000000000081525060200191505060405180910390fd5b600080828154811061130157fe5b906000526020600020906008020190508060020154341461138a576040517f08c379a00000000000000000000000000000000000000000000000000000000081526004018080602001828103825260158152602001807f496e636f727265637420616d6f756e742073656e74000000000000000000000081525060200191505060405180910390fd5b3373ffffffffffffffffffffffffffffffffffffffff168160030160009054906101000a900473ffffffffffffffffffffffffffffffffffffffff1673ffffffffffffffffffffffffffffffffffffffff161415611450576040517f08c379a000000000000000000000000000000000000000000000000000000000815260040180806020018281038252601e8152602001807f43616e6e6f7420707572636861736520796f7572206f776e206d6f64656c000081525060200191505060405180910390fd5b8060050160003373ffffffffffffffffffffffffffffffffffffffff1673ffffffffffffffffffffffffffffffffffffffff16815260200190815260200160002060009054906101000a900460ff16156114f5576040517f08c379a00000000000000000000000000000000000000000000000000000000081526004018080602001828103825260258152602001806118226025913960400191505060405180910390fd5b8060030160009054906101000a900473ffffffffffffffffffffffffffffffffffffffff1673ffffffffffffffffffffffffffffffffffffffff166108fc349081150290604051600060405180830381858888f1935050505015801561155f573d6000803e3d6000fd5b5080600401339080600181540180825580915050600190039060005260206000200160009091909190916101000a81548173ffffffffffffffffffffffffffffffffffffffff021916908373ffffffffffffffffffffffffffffffffffffffff16021790555060018160050160003373ffffffffffffffffffffffffffffffffffffffff1673ffffffffffffffffffffffffffffffffffffffff16815260200190815260200160002060006101000a81548160ff0219169083151502179055507fc8581808129c51c0416692a5ea1b58e080ae8f21e384eefe2f2dc85d231d12ba8233604051808381526020018273ffffffffffffffffffffffffffffffffffffffff1673ffffffffffffffffffffffffffffffffffffffff1681526020019250505060405180910390a15050565b828054600181600116156101000203166002900490600052602060002090601f016020900481019282601f106116cf57805160ff19168380011785556116fd565b828001600101855582156116fd579182015b828111156116fc5782518255916020019190600101906116e1565b5b50905061170a9190611798565b5090565b828054828255906000526020600020908101928215611787579160200282015b828111156117865782518260006101000a81548173ffffffffffffffffffffffffffffffffffffffff021916908373ffffffffffffffffffffffffffffffffffffffff1602179055509160200191906001019061172e565b5b50905061179491906117bd565b5090565b6117ba91905b808211156117b657600081600090555060010161179e565b5090565b90565b6117fd91905b808211156117f957600081816101000a81549073ffffffffffffffffffffffffffffffffffffffff0219169055506001016117c3565b5090565b9056fe4f6e6c7920746865206f776e65722063616e2077697468647261772066756e6473596f75206861766520616c7265616479207075726368617365642074686973206d6f64656c4d6f64656c2063726561746f722063616e6e6f742072617465207468656972206f776e206d6f64656c596f75206d7573742073656e642074686520657861637420616d6f756e74206f6620457468657220657175616c20746f20746865207072696365a2646970667358221220d64bc932a6652eee1c6f05b09f0af116075b1aa5ff4ece4b92a23e9a260f0f2264736f6c63430006000033",
  "source": "// SPDX-License-Identifier: MIT\npragma solidity >=0.6.0 <0.9.0;\n\ncontract AImodelMarketplace {\n    struct Model {\n        string name;\n        string description;\n        uint256 price;\n        address payable creator;\n        address[] buyers; // Store buyers' addresses\n        mapping(address => bool) hasPurchased; // Track if the address has purchased the model\n        uint8 ratingCount;\n        uint256 totalRating;\n    }\n\n    Model[] public models;\n    address public owner;\n\n    event ModelListed(uint256 modelId, string name, address creator, uint256 price);\n    event ModelPurchased(uint256 modelId, address buyer);\n    event ModelRated(uint256 modelId, uint8 rating, address rater);\n    event FundsWithdrawn(address owner, uint256 amount);\n\n    constructor() public {\n        owner = msg.sender; // Set the contract creator as the owner\n    }\n\n    // Function to list a new AI model\n    function listModel(string memory name, string memory description, uint256 price) public payable {\n        require(price > 0, \"Price must be greater than zero\");\n        require(msg.value == price, \"You must send the exact amount of Ether equal to the price\");\n\n        uint256 modelId = models.length;\n\n        models.push(Model({\n            name: name,\n            description: description,\n            price: price,\n            creator: payable(msg.sender), // Correctly initialize as payable\n            buyers: new address[](0), // Initialize buyers array correctly\n            ratingCount: 0,\n            totalRating: 0\n        }));\n\n        emit ModelListed(modelId, name, msg.sender, price);\n    }\n\n    function purchaseModel(uint256 modelId) public payable {\n        require(modelId < models.length, \"Model does not exist\");\n        Model storage model = models[modelId];\n        require(msg.value == model.price, \"Incorrect amount sent\");\n        require(model.creator != msg.sender, \"Cannot purchase your own model\");\n        require(!model.hasPurchased[msg.sender], \"You have already purchased this model\");\n\n        model.creator.transfer(msg.value); // Transfer the amount to the creator\n        model.buyers.push(msg.sender); // Store buyer's address\n        model.hasPurchased[msg.sender] = true; // Mark as purchased\n\n        emit ModelPurchased(modelId, msg.sender);\n    }\n\n    // Function to rate a model\n    function rateModel(uint256 modelId, uint8 rating) public {\n        require(modelId < models.length, \"Model does not exist\");\n        Model storage model = models[modelId];\n\n        require(rating >= 1 && rating <= 5, \"Rating must be between 1 and 5\");\n        require(model.creator != msg.sender, \"Model creator cannot rate their own model\");\n\n        model.ratingCount++;\n        model.totalRating += rating;\n\n        emit ModelRated(modelId, rating, msg.sender);\n    }\n\n    // Function to withdraw funds from the contract\n    function withdrawFunds() public {\n        require(msg.sender == owner, \"Only the owner can withdraw funds\");\n        uint256 balance = address(this).balance;\n        require(balance > 0, \"No funds to withdraw\");\n\n        // Transfer the contract balance to the owner\n        payable(msg.sender).transfer(balance);\n        emit FundsWithdrawn(msg.sender, balance);\n    }\n\n    // Function to get model details\n    function getModelDetails(uint256 modelId) public view returns (string memory, string memory, uint256, address, uint256, address[] memory) {\n        require(modelId < models.length, \"Model does not exist\");\n        Model storage model = models[modelId];\n        uint256 averageRating = model.ratingCount > 0 ? model.totalRating / model.ratingCount : 0;\n\n        return (model.name, model.description, model.price, model.creator, averageRating, model.buyers);\n    }\n\n    // Function to get the total number of models\n    function totalModels() public view returns (uint256) {\n        return models.length;   \n    }\n}\n",
  "sourcePath": "/home/aspandyar/Projects/AI_Model_Marketplace_dApp/contracts/AIModelMarketplace.sol",
  "compiler": {
    "name": "solc",
    "version": "0.6.0+commit.26b70077.Emscripten.clang"
  },
  "schemaVersion": "3.4.16",
  "updatedAt": "2024-10-02T04:10:28.894Z",
  "devdoc": {
    "methods": {}
  },
  "userdoc": {
    "methods": {}
  }
}