{
  "contractName": "AImodelMarketplace",
  "abi": [
    {
      "inputs": [],
      "stateMutability": "nonpayable",
      "type": "constructor"
    },
    {
      "anonymous": false,
      "inputs": [
        {
          "indexed": false,
          "internalType": "address",
          "name": "owner",
          "type": "address"
        },
        {
          "indexed": false,
          "internalType": "uint256",
          "name": "amount",
          "type": "uint256"
        }
      ],
      "name": "FundsWithdrawn",
      "type": "event"
    },
    {
      "anonymous": false,
      "inputs": [
        {
          "indexed": false,
          "internalType": "uint256",
          "name": "modelId",
          "type": "uint256"
        },
        {
          "indexed": false,
          "internalType": "string",
          "name": "name",
          "type": "string"
        },
        {
          "indexed": false,
          "internalType": "address",
          "name": "creator",
          "type": "address"
        },
        {
          "indexed": false,
          "internalType": "uint256",
          "name": "price",
          "type": "uint256"
        }
      ],
      "name": "ModelListed",
      "type": "event"
    },
    {
      "anonymous": false,
      "inputs": [
        {
          "indexed": false,
          "internalType": "uint256",
          "name": "modelId",
          "type": "uint256"
        },
        {
          "indexed": false,
          "internalType": "address",
          "name": "buyer",
          "type": "address"
        }
      ],
      "name": "ModelPurchased",
      "type": "event"
    },
    {
      "anonymous": false,
      "inputs": [
        {
          "indexed": false,
          "internalType": "uint256",
          "name": "modelId",
          "type": "uint256"
        },
        {
          "indexed": false,
          "internalType": "uint8",
          "name": "rating",
          "type": "uint8"
        },
        {
          "indexed": false,
          "internalType": "address",
          "name": "rater",
          "type": "address"
        }
      ],
      "name": "ModelRated",
      "type": "event"
    },
    {
      "inputs": [
        {
          "internalType": "uint256",
          "name": "",
          "type": "uint256"
        }
      ],
      "name": "models",
      "outputs": [
        {
          "internalType": "string",
          "name": "name",
          "type": "string"
        },
        {
          "internalType": "string",
          "name": "description",
          "type": "string"
        },
        {
          "internalType": "uint256",
          "name": "price",
          "type": "uint256"
        },
        {
          "internalType": "address payable",
          "name": "creator",
          "type": "address"
        },
        {
          "internalType": "uint8",
          "name": "ratingCount",
          "type": "uint8"
        },
        {
          "internalType": "uint256",
          "name": "totalRating",
          "type": "uint256"
        }
      ],
      "stateMutability": "view",
      "type": "function",
      "constant": true
    },
    {
      "inputs": [],
      "name": "owner",
      "outputs": [
        {
          "internalType": "address",
          "name": "",
          "type": "address"
        }
      ],
      "stateMutability": "view",
      "type": "function",
      "constant": true
    },
    {
      "stateMutability": "payable",
      "type": "receive",
      "payable": true
    },
    {
      "inputs": [
        {
          "internalType": "string",
          "name": "name",
          "type": "string"
        },
        {
          "internalType": "string",
          "name": "description",
          "type": "string"
        },
        {
          "internalType": "uint256",
          "name": "price",
          "type": "uint256"
        }
      ],
      "name": "listModel",
      "outputs": [],
      "stateMutability": "payable",
      "type": "function",
      "payable": true
    },
    {
      "inputs": [
        {
          "internalType": "uint256",
          "name": "modelId",
          "type": "uint256"
        }
      ],
      "name": "purchaseModel",
      "outputs": [],
      "stateMutability": "payable",
      "type": "function",
      "payable": true
    },
    {
      "inputs": [
        {
          "internalType": "uint256",
          "name": "modelId",
          "type": "uint256"
        },
        {
          "internalType": "uint8",
          "name": "rating",
          "type": "uint8"
        }
      ],
      "name": "rateModel",
      "outputs": [],
      "stateMutability": "nonpayable",
      "type": "function"
    },
    {
      "inputs": [],
      "name": "withdrawFunds",
      "outputs": [],
      "stateMutability": "nonpayable",
      "type": "function"
    },
    {
      "inputs": [
        {
          "internalType": "uint256",
          "name": "modelId",
          "type": "uint256"
        }
      ],
      "name": "getModelDetails",
      "outputs": [
        {
          "internalType": "string",
          "name": "",
          "type": "string"
        },
        {
          "internalType": "string",
          "name": "",
          "type": "string"
        },
        {
          "internalType": "uint256",
          "name": "",
          "type": "uint256"
        },
        {
          "internalType": "address",
          "name": "",
          "type": "address"
        },
        {
          "internalType": "uint256",
          "name": "",
          "type": "uint256"
        },
        {
          "internalType": "address[]",
          "name": "",
          "type": "address[]"
        }
      ],
      "stateMutability": "view",
      "type": "function",
      "constant": true
    },
    {
      "inputs": [],
      "name": "totalModels",
      "outputs": [
        {
          "internalType": "uint256",
          "name": "",
          "type": "uint256"
        }
      ],
      "stateMutability": "view",
      "type": "function",
      "constant": true
    }
  ],
  "bytecode": "0x608060405234801561001057600080fd5b5033600160006101000a81548173ffffffffffffffffffffffffffffffffffffffff021916908373ffffffffffffffffffffffffffffffffffffffff1602179055506118ea806100616000396000f3fe60806040526004361061007f5760003560e01c806331fc042f1161004e57806331fc042f146102715780636a030ca91461041a5780638da5cb5b14610588578063dc746862146105df57610086565b8063017d71961461008b57806312ee1c0e146100b65780631c788a9a1461021257806324600fc31461025a57610086565b3661008657005b600080fd5b34801561009757600080fd5b506100a061060d565b6040518082815260200191505060405180910390f35b610210600480360360608110156100cc57600080fd5b81019080803590602001906401000000008111156100e957600080fd5b8201836020820111156100fb57600080fd5b8035906020019184600183028401116401000000008311171561011d57600080fd5b91908080601f016020809104026020016040519081016040528093929190818152602001838380828437600081840152601f19601f8201169050808301925050505050505091929192908035906020019064010000000081111561018057600080fd5b82018360208201111561019257600080fd5b803590602001918460018302840111640100000000831117156101b457600080fd5b91908080601f016020809104026020016040519081016040528093929190818152602001838380828437600081840152601f19601f82011690508083019250505050505050919291929080359060200190929190505050610619565b005b34801561021e57600080fd5b506102586004803603604081101561023557600080fd5b8101908080359060200190929190803560ff169060200190929190505050610954565b005b34801561026657600080fd5b5061026f610be6565b005b34801561027d57600080fd5b506102aa6004803603602081101561029457600080fd5b8101908080359060200190929190505050610dbc565b6040518080602001806020018781526020018673ffffffffffffffffffffffffffffffffffffffff1673ffffffffffffffffffffffffffffffffffffffff1681526020018581526020018060200184810384528a818151815260200191508051906020019080838360005b83811015610330578082015181840152602081019050610315565b50505050905090810190601f16801561035d5780820380516001836020036101000a031916815260200191505b50848103835289818151815260200191508051906020019080838360005b8381101561039657808201518184015260208101905061037b565b50505050905090810190601f1680156103c35780820380516001836020036101000a031916815260200191505b50848103825285818151815260200191508051906020019060200280838360005b838110156103ff5780820151818401526020810190506103e4565b50505050905001995050505050505050505060405180910390f35b34801561042657600080fd5b506104536004803603602081101561043d57600080fd5b81019080803590602001909291905050506110b8565b6040518080602001806020018781526020018673ffffffffffffffffffffffffffffffffffffffff1673ffffffffffffffffffffffffffffffffffffffff1681526020018560ff1660ff168152602001848152602001838103835289818151815260200191508051906020019080838360005b838110156104e15780820151818401526020810190506104c6565b50505050905090810190601f16801561050e5780820380516001836020036101000a031916815260200191505b50838103825288818151815260200191508051906020019080838360005b8381101561054757808201518184015260208101905061052c565b50505050905090810190601f1680156105745780820380516001836020036101000a031916815260200191505b509850505050505050505060405180910390f35b34801561059457600080fd5b5061059d61125e565b604051808273ffffffffffffffffffffffffffffffffffffffff1673ffffffffffffffffffffffffffffffffffffffff16815260200191505060405180910390f35b61060b600480360360208110156105f557600080fd5b8101908080359060200190929190505050611284565b005b60008080549050905090565b6000811161068f576040517f08c379a000000000000000000000000000000000000000000000000000000000815260040180806020018281038252601f8152602001807f5072696365206d7573742062652067726561746572207468616e207a65726f0081525060200191505060405180910390fd5b8034146106e7576040517f08c379a000000000000000000000000000000000000000000000000000000000815260040180806020018281038252603a81526020018061187b603a913960400191505060405180910390fd5b60008080549050905060006040518060e001604052808681526020018581526020018481526020013373ffffffffffffffffffffffffffffffffffffffff168152602001600060405190808252806020026020018201604052801561075b5781602001602082028038833980820191505090505b508152602001600060ff1681526020016000815250908060018154018082558091505060019003906000526020600020906008020160009091909190915060008201518160000190805190602001906107b5929190611699565b5060208201518160010190805190602001906107d2929190611699565b506040820151816002015560608201518160030160006101000a81548173ffffffffffffffffffffffffffffffffffffffff021916908373ffffffffffffffffffffffffffffffffffffffff1602179055506080820151816004019080519060200190610840929190611719565b5060a08201518160060160006101000a81548160ff021916908360ff16021790555060c0820151816007015550507fabc397ccc80c841b298c907d59647c74c037c83fa022c96a656586ade33b74b68185338560405180858152602001806020018473ffffffffffffffffffffffffffffffffffffffff1673ffffffffffffffffffffffffffffffffffffffff168152602001838152602001828103825285818151815260200191508051906020019080838360005b838110156109115780820151818401526020810190506108f6565b50505050905090810190601f16801561093e5780820380516001836020036101000a031916815260200191505b509550505050505060405180910390a150505050565b60008054905082106109ce576040517f08c379a00000000000000000000000000000000000000000000000000000000081526004018080602001828103825260148152602001807f4d6f64656c20646f6573206e6f7420657869737400000000000000000000000081525060200191505060405180910390fd5b60008083815481106109dc57fe5b9060005260206000209060080201905060018260ff1610158015610a04575060058260ff1611155b610a76576040517f08c379a000000000000000000000000000000000000000000000000000000000815260040180806020018281038252601e8152602001807f526174696e67206d757374206265206265747765656e203120616e642035000081525060200191505060405180910390fd5b3373ffffffffffffffffffffffffffffffffffffffff168160030160009054906101000a900473ffffffffffffffffffffffffffffffffffffffff1673ffffffffffffffffffffffffffffffffffffffff161415610b1f576040517f08c379a00000000000000000000000000000000000000000000000000000000081526004018080602001828103825260298152602001806118526029913960400191505060405180910390fd5b80600601600081819054906101000a900460ff168092919060010191906101000a81548160ff021916908360ff160217905550508160ff1681600701600082825401925050819055507f4129c8696bb756892ebbda9c4396a685357b1f8eddd505fee0f194e56f8c9a2b838333604051808481526020018360ff1660ff1681526020018273ffffffffffffffffffffffffffffffffffffffff1673ffffffffffffffffffffffffffffffffffffffff168152602001935050505060405180910390a1505050565b600160009054906101000a900473ffffffffffffffffffffffffffffffffffffffff1673ffffffffffffffffffffffffffffffffffffffff163373ffffffffffffffffffffffffffffffffffffffff1614610c8c576040517f08c379a000000000000000000000000000000000000000000000000000000000815260040180806020018281038252602181526020018061180c6021913960400191505060405180910390fd5b600047905060008111610d07576040517f08c379a00000000000000000000000000000000000000000000000000000000081526004018080602001828103825260148152602001807f4e6f2066756e647320746f20776974686472617700000000000000000000000081525060200191505060405180910390fd5b3373ffffffffffffffffffffffffffffffffffffffff166108fc829081150290604051600060405180830381858888f19350505050158015610d4d573d6000803e3d6000fd5b507feaff4b37086828766ad3268786972c0cd24259d4c87a80f9d3963a3c3d999b0d3382604051808373ffffffffffffffffffffffffffffffffffffffff1673ffffffffffffffffffffffffffffffffffffffff1681526020018281526020019250505060405180910390a150565b606080600080600060606000805490508710610e40576040517f08c379a00000000000000000000000000000000000000000000000000000000081526004018080602001828103825260148152602001807f4d6f64656c20646f6573206e6f7420657869737400000000000000000000000081525060200191505060405180910390fd5b6000808881548110610e4e57fe5b906000526020600020906008020190506000808260060160009054906101000a900460ff1660ff1611610e82576000610ea5565b8160060160009054906101000a900460ff1660ff16826007015481610ea357fe5b045b9050816000018260010183600201548460030160009054906101000a900473ffffffffffffffffffffffffffffffffffffffff168486600401858054600181600116156101000203166002900480601f016020809104026020016040519081016040528092919081815260200182805460018160011615610100020316600290048015610f735780601f10610f4857610100808354040283529160200191610f73565b820191906000526020600020905b815481529060010190602001808311610f5657829003601f168201915b50505050509550848054600181600116156101000203166002900480601f01602080910402602001604051908101604052809291908181526020018280546001816001161561010002031660029004801561100f5780601f10610fe45761010080835404028352916020019161100f565b820191906000526020600020905b815481529060010190602001808311610ff257829003601f168201915b505050505094508292508080548060200260200160405190810160405280929190818152602001828054801561109a57602002820191906000526020600020905b8160009054906101000a900473ffffffffffffffffffffffffffffffffffffffff1673ffffffffffffffffffffffffffffffffffffffff1681526020019060010190808311611050575b50505050509050975097509750975097509750505091939550919395565b600081815481106110c557fe5b9060005260206000209060080201600091509050806000018054600181600116156101000203166002900480601f0160208091040260200160405190810160405280929190818152602001828054600181600116156101000203166002900480156111715780601f1061114657610100808354040283529160200191611171565b820191906000526020600020905b81548152906001019060200180831161115457829003601f168201915b505050505090806001018054600181600116156101000203166002900480601f01602080910402602001604051908101604052809291908181526020018280546001816001161561010002031660029004801561120f5780601f106111e45761010080835404028352916020019161120f565b820191906000526020600020905b8154815290600101906020018083116111f257829003601f168201915b5050505050908060020154908060030160009054906101000a900473ffffffffffffffffffffffffffffffffffffffff16908060060160009054906101000a900460ff16908060070154905086565b600160009054906101000a900473ffffffffffffffffffffffffffffffffffffffff1681565b60008054905081106112fe576040517f08c379a00000000000000000000000000000000000000000000000000000000081526004018080602001828103825260148152602001807f4d6f64656c20646f6573206e6f7420657869737400000000000000000000000081525060200191505060405180910390fd5b600080828154811061130c57fe5b9060005260206000209060080201905080600201543414611395576040517f08c379a00000000000000000000000000000000000000000000000000000000081526004018080602001828103825260158152602001807f496e636f727265637420616d6f756e742073656e74000000000000000000000081525060200191505060405180910390fd5b3373ffffffffffffffffffffffffffffffffffffffff168160030160009054906101000a900473ffffffffffffffffffffffffffffffffffffffff1673ffffffffffffffffffffffffffffffffffffffff16141561145b576040517f08c379a000000000000000000000000000000000000000000000000000000000815260040180806020018281038252601e8152602001807f43616e6e6f7420707572636861736520796f7572206f776e206d6f64656c000081525060200191505060405180910390fd5b8060050160003373ffffffffffffffffffffffffffffffffffffffff1673ffffffffffffffffffffffffffffffffffffffff16815260200190815260200160002060009054906101000a900460ff1615611500576040517f08c379a000000000000000000000000000000000000000000000000000000000815260040180806020018281038252602581526020018061182d6025913960400191505060405180910390fd5b8060030160009054906101000a900473ffffffffffffffffffffffffffffffffffffffff1673ffffffffffffffffffffffffffffffffffffffff166108fc349081150290604051600060405180830381858888f1935050505015801561156a573d6000803e3d6000fd5b5080600401339080600181540180825580915050600190039060005260206000200160009091909190916101000a81548173ffffffffffffffffffffffffffffffffffffffff021916908373ffffffffffffffffffffffffffffffffffffffff16021790555060018160050160003373ffffffffffffffffffffffffffffffffffffffff1673ffffffffffffffffffffffffffffffffffffffff16815260200190815260200160002060006101000a81548160ff0219169083151502179055507fc8581808129c51c0416692a5ea1b58e080ae8f21e384eefe2f2dc85d231d12ba8233604051808381526020018273ffffffffffffffffffffffffffffffffffffffff1673ffffffffffffffffffffffffffffffffffffffff1681526020019250505060405180910390a15050565b828054600181600116156101000203166002900490600052602060002090601f016020900481019282601f106116da57805160ff1916838001178555611708565b82800160010185558215611708579182015b828111156117075782518255916020019190600101906116ec565b5b50905061171591906117a3565b5090565b828054828255906000526020600020908101928215611792579160200282015b828111156117915782518260006101000a81548173ffffffffffffffffffffffffffffffffffffffff021916908373ffffffffffffffffffffffffffffffffffffffff16021790555091602001919060010190611739565b5b50905061179f91906117c8565b5090565b6117c591905b808211156117c15760008160009055506001016117a9565b5090565b90565b61180891905b8082111561180457600081816101000a81549073ffffffffffffffffffffffffffffffffffffffff0219169055506001016117ce565b5090565b9056fe4f6e6c7920746865206f776e65722063616e2077697468647261772066756e6473596f75206861766520616c7265616479207075726368617365642074686973206d6f64656c4d6f64656c2063726561746f722063616e6e6f742072617465207468656972206f776e206d6f64656c596f75206d7573742073656e642074686520657861637420616d6f756e74206f6620457468657220657175616c20746f20746865207072696365a264697066735822122048782a013b8703395b574d77d1f2187a0f054fc0ea091a0413939b32027efba264736f6c63430006000033",
  "source": "// SPDX-License-Identifier: MIT\npragma solidity >=0.6.0 <0.9.0;\n\ncontract AImodelMarketplace {\n    struct Model {\n        string name;\n        string description;\n        uint256 price;\n        address payable creator;\n        address[] buyers; // Store buyers' addresses\n        mapping(address => bool) hasPurchased; // Track if the address has purchased the model\n        uint8 ratingCount;\n        uint256 totalRating;\n    }\n\n    Model[] public models;\n    address public owner;\n\n    event ModelListed(uint256 modelId, string name, address creator, uint256 price);\n    event ModelPurchased(uint256 modelId, address buyer);\n    event ModelRated(uint256 modelId, uint8 rating, address rater);\n    event FundsWithdrawn(address owner, uint256 amount);\n\n    constructor() public {\n        owner = msg.sender; // Set the contract creator as the owner\n    }\n\n    // Receive function to accept Ether\n    receive() external payable {}\n\n    // Function to list a new AI model\n    function listModel(string memory name, string memory description, uint256 price) public payable {\n        require(price > 0, \"Price must be greater than zero\");\n        require(msg.value == price, \"You must send the exact amount of Ether equal to the price\");\n\n        uint256 modelId = models.length;\n\n        models.push(Model({\n            name: name,\n            description: description,\n            price: price,\n            creator: payable(msg.sender), // Correctly initialize as payable\n            buyers: new address[](0), // Initialize buyers array correctly\n            ratingCount: 0,\n            totalRating: 0\n        }));\n\n        emit ModelListed(modelId, name, msg.sender, price);\n    }\n\n    function purchaseModel(uint256 modelId) public payable {\n        require(modelId < models.length, \"Model does not exist\");\n        Model storage model = models[modelId];\n        require(msg.value == model.price, \"Incorrect amount sent\");\n        require(model.creator != msg.sender, \"Cannot purchase your own model\");\n        require(!model.hasPurchased[msg.sender], \"You have already purchased this model\");\n\n        model.creator.transfer(msg.value); // Transfer the amount to the creator\n        model.buyers.push(msg.sender); // Store buyer's address\n        model.hasPurchased[msg.sender] = true; // Mark as purchased\n\n        emit ModelPurchased(modelId, msg.sender);\n    }\n\n    // Function to rate a model\n    function rateModel(uint256 modelId, uint8 rating) public {\n        require(modelId < models.length, \"Model does not exist\");\n        Model storage model = models[modelId];\n\n        require(rating >= 1 && rating <= 5, \"Rating must be between 1 and 5\");\n        require(model.creator != msg.sender, \"Model creator cannot rate their own model\");\n\n        model.ratingCount++;\n        model.totalRating += rating;\n\n        emit ModelRated(modelId, rating, msg.sender);\n    }\n\n    // Function to withdraw funds from the contract\n    function withdrawFunds() public {\n        require(msg.sender == owner, \"Only the owner can withdraw funds\");\n        uint256 balance = address(this).balance;\n        require(balance > 0, \"No funds to withdraw\");\n\n        // Transfer the contract balance to the owner\n        payable(msg.sender).transfer(balance);\n        emit FundsWithdrawn(msg.sender, balance);\n    }\n\n    // Function to get model details\n    function getModelDetails(uint256 modelId) public view returns (string memory, string memory, uint256, address, uint256, address[] memory) {\n        require(modelId < models.length, \"Model does not exist\");\n        Model storage model = models[modelId];\n        uint256 averageRating = model.ratingCount > 0 ? model.totalRating / model.ratingCount : 0;\n\n        return (model.name, model.description, model.price, model.creator, averageRating, model.buyers);\n    }\n\n    // Function to get the total number of models\n    function totalModels() public view returns (uint256) {\n        return models.length;   \n    }\n}\n",
  "sourcePath": "/home/aspandyar/Projects/AI_Model_Marketplace_dApp/contracts/AIModelMarketplace.sol",
  "compiler": {
    "name": "solc",
    "version": "0.6.0+commit.26b70077.Emscripten.clang"
  },
  "schemaVersion": "3.4.16",
  "updatedAt": "2024-10-02T17:47:48.296Z",
  "networkType": "ethereum",
  "devdoc": {
    "methods": {}
  },
  "userdoc": {
    "methods": {}
  }
}