{
  "contractName": "AIModelMarketplace",
  "abi": [
    {
      "inputs": [],
      "stateMutability": "nonpayable",
      "type": "constructor"
    },
    {
      "inputs": [
        {
          "internalType": "uint256",
          "name": "",
          "type": "uint256"
        },
        {
          "internalType": "uint256",
          "name": "",
          "type": "uint256"
        }
      ],
      "name": "modelPurchasers",
      "outputs": [
        {
          "internalType": "address",
          "name": "",
          "type": "address"
        }
      ],
      "stateMutability": "view",
      "type": "function",
      "constant": true
    },
    {
      "inputs": [
        {
          "internalType": "uint256",
          "name": "",
          "type": "uint256"
        }
      ],
      "name": "models",
      "outputs": [
        {
          "internalType": "string",
          "name": "name",
          "type": "string"
        },
        {
          "internalType": "string",
          "name": "description",
          "type": "string"
        },
        {
          "internalType": "uint256",
          "name": "price",
          "type": "uint256"
        },
        {
          "internalType": "address payable",
          "name": "creator",
          "type": "address"
        },
        {
          "internalType": "uint8",
          "name": "totalRatings",
          "type": "uint8"
        },
        {
          "internalType": "uint8",
          "name": "numOfRatings",
          "type": "uint8"
        },
        {
          "internalType": "bool",
          "name": "purchased",
          "type": "bool"
        }
      ],
      "stateMutability": "view",
      "type": "function",
      "constant": true
    },
    {
      "inputs": [],
      "name": "owner",
      "outputs": [
        {
          "internalType": "address",
          "name": "",
          "type": "address"
        }
      ],
      "stateMutability": "view",
      "type": "function",
      "constant": true
    },
    {
      "inputs": [
        {
          "internalType": "string",
          "name": "name",
          "type": "string"
        },
        {
          "internalType": "string",
          "name": "description",
          "type": "string"
        },
        {
          "internalType": "uint256",
          "name": "price",
          "type": "uint256"
        }
      ],
      "name": "listModel",
      "outputs": [],
      "stateMutability": "nonpayable",
      "type": "function"
    },
    {
      "inputs": [
        {
          "internalType": "uint256",
          "name": "modelId",
          "type": "uint256"
        }
      ],
      "name": "purchaseModel",
      "outputs": [],
      "stateMutability": "payable",
      "type": "function",
      "payable": true
    },
    {
      "inputs": [
        {
          "internalType": "uint256",
          "name": "modelId",
          "type": "uint256"
        },
        {
          "internalType": "uint8",
          "name": "rating",
          "type": "uint8"
        }
      ],
      "name": "rateModel",
      "outputs": [],
      "stateMutability": "nonpayable",
      "type": "function"
    },
    {
      "inputs": [],
      "name": "withdrawFunds",
      "outputs": [],
      "stateMutability": "nonpayable",
      "type": "function"
    },
    {
      "inputs": [
        {
          "internalType": "uint256",
          "name": "modelId",
          "type": "uint256"
        }
      ],
      "name": "getModelDetails",
      "outputs": [
        {
          "internalType": "string",
          "name": "",
          "type": "string"
        },
        {
          "internalType": "string",
          "name": "",
          "type": "string"
        },
        {
          "internalType": "uint256",
          "name": "",
          "type": "uint256"
        },
        {
          "internalType": "address",
          "name": "",
          "type": "address"
        },
        {
          "internalType": "uint8",
          "name": "",
          "type": "uint8"
        }
      ],
      "stateMutability": "view",
      "type": "function",
      "constant": true
    }
  ],
  "bytecode": "0x608060405234801561001057600080fd5b5033600260006101000a81548173ffffffffffffffffffffffffffffffffffffffff021916908373ffffffffffffffffffffffffffffffffffffffff160217905550611921806100616000396000f3fe60806040526004361061007b5760003560e01c80635a2d34841161004e5780635a2d34841461012a5780636a030ca9146101675780638da5cb5b146101aa578063dc746862146101d55761007b565b806312ee1c0e146100805780631c788a9a146100a957806324600fc3146100d257806331fc042f146100e9575b600080fd5b34801561008c57600080fd5b506100a760048036038101906100a29190610fd4565b6101f1565b005b3480156100b557600080fd5b506100d060048036038101906100cb91906110b8565b6103ad565b005b3480156100de57600080fd5b506100e7610638565b005b3480156100f557600080fd5b50610110600480360381019061010b9190611053565b61077c565b60405161012195949392919061145c565b60405180910390f35b34801561013657600080fd5b50610151600480360381019061014c919061107c565b610a51565b60405161015e91906113c4565b60405180910390f35b34801561017357600080fd5b5061018e60048036038101906101899190611053565b610a9f565b6040516101a197969594939291906113df565b60405180910390f35b3480156101b657600080fd5b506101bf610c48565b6040516101cc91906113c4565b60405180910390f35b6101ef60048036038101906101ea9190611053565b610c6e565b005b60008111610234576040517f08c379a000000000000000000000000000000000000000000000000000000000815260040161022b906114dd565b60405180910390fd5b60006040518060e001604052808581526020018481526020018381526020013373ffffffffffffffffffffffffffffffffffffffff168152602001600060ff168152602001600060ff168152602001600015158152509050600081908060018154018082558091505060019003906000526020600020906004020160009091909190915060008201518160000190805190602001906102d4929190610e9f565b5060208201518160010190805190602001906102f1929190610e9f565b506040820151816002015560608201518160030160006101000a81548173ffffffffffffffffffffffffffffffffffffffff021916908373ffffffffffffffffffffffffffffffffffffffff16021790555060808201518160030160146101000a81548160ff021916908360ff16021790555060a08201518160030160156101000a81548160ff021916908360ff16021790555060c08201518160030160166101000a81548160ff021916908315150217905550505050505050565b816000805b6001600084815260200190815260200160002080549050811015610495573373ffffffffffffffffffffffffffffffffffffffff16600160008581526020019081526020016000208281548110610432577f4e487b7100000000000000000000000000000000000000000000000000000000600052603260045260246000fd5b9060005260206000200160009054906101000a900473ffffffffffffffffffffffffffffffffffffffff1673ffffffffffffffffffffffffffffffffffffffff1614156104825760019150610495565b808061048d9061177d565b9150506103b2565b50806104d6576040517f08c379a00000000000000000000000000000000000000000000000000000000081526004016104cd906114bd565b60405180910390fd5b600080549050841061051d576040517f08c379a00000000000000000000000000000000000000000000000000000000081526004016105149061153d565b60405180910390fd5b60018360ff1610158015610535575060058360ff1611155b610574576040517f08c379a000000000000000000000000000000000000000000000000000000000815260040161056b9061155d565b60405180910390fd5b60008085815481106105af577f4e487b7100000000000000000000000000000000000000000000000000000000600052603260045260246000fd5b90600052602060002090600402019050838160030160148282829054906101000a900460ff166105df919061163a565b92506101000a81548160ff021916908360ff16021790555080600301601581819054906101000a900460ff1680929190610618906117c6565b91906101000a81548160ff021916908360ff160217905550505050505050565b600260009054906101000a900473ffffffffffffffffffffffffffffffffffffffff1673ffffffffffffffffffffffffffffffffffffffff163373ffffffffffffffffffffffffffffffffffffffff16146106c8576040517f08c379a00000000000000000000000000000000000000000000000000000000081526004016106bf9061157d565b60405180910390fd5b600047905060008111610710576040517f08c379a00000000000000000000000000000000000000000000000000000000081526004016107079061151d565b60405180910390fd5b600260009054906101000a900473ffffffffffffffffffffffffffffffffffffffff1673ffffffffffffffffffffffffffffffffffffffff166108fc829081150290604051600060405180830381858888f19350505050158015610778573d6000803e3d6000fd5b5050565b6060806000806000808054905086106107ca576040517f08c379a00000000000000000000000000000000000000000000000000000000081526004016107c19061153d565b60405180910390fd5b6000808781548110610805577f4e487b7100000000000000000000000000000000000000000000000000000000600052603260045260246000fd5b90600052602060002090600402016040518060e001604052908160008201805461082e9061174b565b80601f016020809104026020016040519081016040528092919081815260200182805461085a9061174b565b80156108a75780601f1061087c576101008083540402835291602001916108a7565b820191906000526020600020905b81548152906001019060200180831161088a57829003601f168201915b505050505081526020016001820180546108c09061174b565b80601f01602080910402602001604051908101604052809291908181526020018280546108ec9061174b565b80156109395780601f1061090e57610100808354040283529160200191610939565b820191906000526020600020905b81548152906001019060200180831161091c57829003601f168201915b50505050508152602001600282015481526020016003820160009054906101000a900473ffffffffffffffffffffffffffffffffffffffff1673ffffffffffffffffffffffffffffffffffffffff1673ffffffffffffffffffffffffffffffffffffffff1681526020016003820160149054906101000a900460ff1660ff1660ff1681526020016003820160159054906101000a900460ff1660ff1660ff1681526020016003820160169054906101000a900460ff16151515158152505090506000808260a0015160ff1614610a22578160a001518260800151610a1d9190611671565b610a25565b60005b905081600001518260200151836040015184606001518496509650965096509650505091939590929450565b60016020528160005260406000208181548110610a6d57600080fd5b906000526020600020016000915091509054906101000a900473ffffffffffffffffffffffffffffffffffffffff1681565b60008181548110610aaf57600080fd5b9060005260206000209060040201600091509050806000018054610ad29061174b565b80601f0160208091040260200160405190810160405280929190818152602001828054610afe9061174b565b8015610b4b5780601f10610b2057610100808354040283529160200191610b4b565b820191906000526020600020905b815481529060010190602001808311610b2e57829003601f168201915b505050505090806001018054610b609061174b565b80601f0160208091040260200160405190810160405280929190818152602001828054610b8c9061174b565b8015610bd95780601f10610bae57610100808354040283529160200191610bd9565b820191906000526020600020905b815481529060010190602001808311610bbc57829003601f168201915b5050505050908060020154908060030160009054906101000a900473ffffffffffffffffffffffffffffffffffffffff16908060030160149054906101000a900460ff16908060030160159054906101000a900460ff16908060030160169054906101000a900460ff16905087565b600260009054906101000a900473ffffffffffffffffffffffffffffffffffffffff1681565b6000805490508110610cb5576040517f08c379a0000000000000000000000000000000000000000000000000000000008152600401610cac9061153d565b60405180910390fd5b6000808281548110610cf0577f4e487b7100000000000000000000000000000000000000000000000000000000600052603260045260246000fd5b906000526020600020906004020190508060020154341015610d47576040517f08c379a0000000000000000000000000000000000000000000000000000000008152600401610d3e9061159d565b60405180910390fd5b600015158160030160169054906101000a900460ff16151514610d9f576040517f08c379a0000000000000000000000000000000000000000000000000000000008152600401610d96906114fd565b60405180910390fd5b8060030160009054906101000a900473ffffffffffffffffffffffffffffffffffffffff1673ffffffffffffffffffffffffffffffffffffffff166108fc349081150290604051600060405180830381858888f19350505050158015610e09573d6000803e3d6000fd5b5060016000838152602001908152602001600020339080600181540180825580915050600190039060005260206000200160009091909190916101000a81548173ffffffffffffffffffffffffffffffffffffffff021916908373ffffffffffffffffffffffffffffffffffffffff16021790555060018160030160166101000a81548160ff0219169083151502179055505050565b828054610eab9061174b565b90600052602060002090601f016020900481019282610ecd5760008555610f14565b82601f10610ee657805160ff1916838001178555610f14565b82800160010185558215610f14579182015b82811115610f13578251825591602001919060010190610ef8565b5b509050610f219190610f25565b5090565b5b80821115610f3e576000816000905550600101610f26565b5090565b6000610f55610f50846115ee565b6115bd565b905082815260208101848484011115610f6d57600080fd5b610f78848285611709565b509392505050565b600082601f830112610f9157600080fd5b8135610fa1848260208601610f42565b91505092915050565b600081359050610fb9816118bd565b92915050565b600081359050610fce816118d4565b92915050565b600080600060608486031215610fe957600080fd5b600084013567ffffffffffffffff81111561100357600080fd5b61100f86828701610f80565b935050602084013567ffffffffffffffff81111561102c57600080fd5b61103886828701610f80565b925050604061104986828701610faa565b9150509250925092565b60006020828403121561106557600080fd5b600061107384828501610faa565b91505092915050565b6000806040838503121561108f57600080fd5b600061109d85828601610faa565b92505060206110ae85828601610faa565b9150509250929050565b600080604083850312156110cb57600080fd5b60006110d985828601610faa565b92505060206110ea85828601610fbf565b9150509250929050565b6110fd816116b4565b82525050565b61110c816116a2565b82525050565b61111b816116c6565b82525050565b600061112c8261161e565b6111368185611629565b9350611146818560208601611718565b61114f816118ac565b840191505092915050565b6000611167602683611629565b91507f596f75206d75737420707572636861736520746865206d6f64656c20746f207260008301527f61746520697400000000000000000000000000000000000000000000000000006020830152604082019050919050565b60006111cd601f83611629565b91507f5072696365206d7573742062652067726561746572207468616e207a65726f006000830152602082019050919050565b600061120d601783611629565b91507f4d6f64656c20616c7265616479207075726368617365640000000000000000006000830152602082019050919050565b600061124d601e83611629565b91507f4e6f2066756e647320617661696c61626c6520746f20776974686472617700006000830152602082019050919050565b600061128d601483611629565b91507f4d6f64656c20646f6573206e6f742065786973740000000000000000000000006000830152602082019050919050565b60006112cd602083611629565b91507f526174696e672073686f756c64206265206265747765656e203120616e6420356000830152602082019050919050565b600061130d601683611629565b91507f4e6f742074686520636f6e7472616374206f776e6572000000000000000000006000830152602082019050919050565b600061134d602883611629565b91507f496e73756666696369656e742066756e647320746f207075726368617365207460008301527f6865206d6f64656c0000000000000000000000000000000000000000000000006020830152604082019050919050565b6113af816116f2565b82525050565b6113be816116fc565b82525050565b60006020820190506113d96000830184611103565b92915050565b600060e08201905081810360008301526113f9818a611121565b9050818103602083015261140d8189611121565b905061141c60408301886113a6565b61142960608301876110f4565b61143660808301866113b5565b61144360a08301856113b5565b61145060c0830184611112565b98975050505050505050565b600060a08201905081810360008301526114768188611121565b9050818103602083015261148a8187611121565b905061149960408301866113a6565b6114a66060830185611103565b6114b360808301846113b5565b9695505050505050565b600060208201905081810360008301526114d68161115a565b9050919050565b600060208201905081810360008301526114f6816111c0565b9050919050565b6000602082019050818103600083015261151681611200565b9050919050565b6000602082019050818103600083015261153681611240565b9050919050565b6000602082019050818103600083015261155681611280565b9050919050565b60006020820190508181036000830152611576816112c0565b9050919050565b6000602082019050818103600083015261159681611300565b9050919050565b600060208201905081810360008301526115b681611340565b9050919050565b6000604051905081810181811067ffffffffffffffff821117156115e4576115e361187d565b5b8060405250919050565b600067ffffffffffffffff8211156116095761160861187d565b5b601f19601f8301169050602081019050919050565b600081519050919050565b600082825260208201905092915050565b6000611645826116fc565b9150611650836116fc565b92508260ff03821115611666576116656117f0565b5b828201905092915050565b600061167c826116fc565b9150611687836116fc565b9250826116975761169661181f565b5b828204905092915050565b60006116ad826116d2565b9050919050565b60006116bf826116d2565b9050919050565b60008115159050919050565b600073ffffffffffffffffffffffffffffffffffffffff82169050919050565b6000819050919050565b600060ff82169050919050565b82818337600083830152505050565b60005b8381101561173657808201518184015260208101905061171b565b83811115611745576000848401525b50505050565b6000600282049050600182168061176357607f821691505b602082108114156117775761177661184e565b5b50919050565b6000611788826116f2565b91507fffffffffffffffffffffffffffffffffffffffffffffffffffffffffffffffff8214156117bb576117ba6117f0565b5b600182019050919050565b60006117d1826116fc565b915060ff8214156117e5576117e46117f0565b5b600182019050919050565b7f4e487b7100000000000000000000000000000000000000000000000000000000600052601160045260246000fd5b7f4e487b7100000000000000000000000000000000000000000000000000000000600052601260045260246000fd5b7f4e487b7100000000000000000000000000000000000000000000000000000000600052602260045260246000fd5b7f4e487b7100000000000000000000000000000000000000000000000000000000600052604160045260246000fd5b6000601f19601f8301169050919050565b6118c6816116f2565b81146118d157600080fd5b50565b6118dd816116fc565b81146118e857600080fd5b5056fea264697066735822122073f694b65cb436389ed69689ece8e9c705b8647ac0cd4083094cba237af85e1e64736f6c63430008000033",
  "immutableReferences": {},
  "source": "// contracts/AIModelMarketplace.sol\n// SPDX-License-Identifier: MIT\npragma solidity ^0.8.0;\n\ncontract AIModelMarketplace {\n    struct Model {\n        string name;\n        string description;\n        uint256 price;\n        address payable creator;\n        uint8 totalRatings;\n        uint8 numOfRatings;\n        bool purchased;\n    }\n\n    Model[] public models;\n    mapping(uint256 => address[]) public modelPurchasers;\n\n    address public owner;\n\n    constructor() {\n        owner = msg.sender;\n    }\n\n    modifier onlyOwner() {\n        require(msg.sender == owner, \"Not the contract owner\");\n        _;\n    }\n\n    modifier onlyPurchasers(uint256 modelId) {\n        bool hasPurchased = false;\n        for (uint256 i = 0; i < modelPurchasers[modelId].length; i++) {\n            if (modelPurchasers[modelId][i] == msg.sender) {\n                hasPurchased = true;\n                break;\n            }\n        }\n        require(hasPurchased, \"You must purchase the model to rate it\");\n        _;\n    }\n\n    // List a new AI model\n    function listModel(string memory name, string memory description, uint256 price) public {\n        require(price > 0, \"Price must be greater than zero\");\n\n        Model memory newModel = Model({\n            name: name,\n            description: description,\n            price: price,\n            creator: payable(msg.sender),\n            totalRatings: 0,\n            numOfRatings: 0,\n            purchased: false\n        });\n\n        models.push(newModel);\n    }\n\n    // Purchase an AI model\n    function purchaseModel(uint256 modelId) public payable {\n        require(modelId < models.length, \"Model does not exist\");\n        Model storage model = models[modelId];\n        require(msg.value >= model.price, \"Insufficient funds to purchase the model\");\n        require(model.purchased == false, \"Model already purchased\");\n\n        model.creator.transfer(msg.value); // Transfer payment to the model creator\n        modelPurchasers[modelId].push(msg.sender);\n        model.purchased = true;\n    }\n\n    // Rate a purchased model\n    function rateModel(uint256 modelId, uint8 rating) public onlyPurchasers(modelId) {\n        require(modelId < models.length, \"Model does not exist\");\n        require(rating >= 1 && rating <= 5, \"Rating should be between 1 and 5\");\n\n        Model storage model = models[modelId];\n        model.totalRatings += rating;\n        model.numOfRatings++;\n    }\n\n    // Withdraw accumulated funds\n    function withdrawFunds() public onlyOwner {\n        uint256 balance = address(this).balance;\n        require(balance > 0, \"No funds available to withdraw\");\n        payable(owner).transfer(balance);\n    }\n\n    // Get model details\n    function getModelDetails(uint256 modelId) public view returns (string memory, string memory, uint256, address, uint8) {\n        require(modelId < models.length, \"Model does not exist\");\n\n        Model memory model = models[modelId];\n        uint8 averageRating = model.numOfRatings == 0 ? 0 : model.totalRatings / model.numOfRatings;\n\n        return (model.name, model.description, model.price, model.creator, averageRating);\n    }\n}\n",
  "sourcePath": "/home/aspandyar/Projects/AI_Model_Marketplace_dApp/contracts/AIModelMarketplace.sol",
  "compiler": {
    "name": "solc",
    "version": "0.8.0+commit.c7dfd78e.Emscripten.clang"
  },
  "schemaVersion": "3.4.16",
  "updatedAt": "2024-09-29T20:52:43.031Z",
  "networkType": "ethereum",
  "devdoc": {
    "kind": "dev",
    "methods": {},
    "version": 1
  },
  "userdoc": {
    "kind": "user",
    "methods": {},
    "version": 1
  }
}