{
  "contractName": "AImodelMarketplace",
  "abi": [
    {
      "inputs": [],
      "stateMutability": "nonpayable",
      "type": "constructor"
    },
    {
      "anonymous": false,
      "inputs": [
        {
          "indexed": false,
          "internalType": "address",
          "name": "owner",
          "type": "address"
        },
        {
          "indexed": false,
          "internalType": "uint256",
          "name": "amount",
          "type": "uint256"
        }
      ],
      "name": "FundsWithdrawn",
      "type": "event"
    },
    {
      "anonymous": false,
      "inputs": [
        {
          "indexed": false,
          "internalType": "uint256",
          "name": "modelId",
          "type": "uint256"
        },
        {
          "indexed": false,
          "internalType": "string",
          "name": "name",
          "type": "string"
        },
        {
          "indexed": false,
          "internalType": "address",
          "name": "creator",
          "type": "address"
        },
        {
          "indexed": false,
          "internalType": "uint256",
          "name": "price",
          "type": "uint256"
        }
      ],
      "name": "ModelListed",
      "type": "event"
    },
    {
      "anonymous": false,
      "inputs": [
        {
          "indexed": false,
          "internalType": "uint256",
          "name": "modelId",
          "type": "uint256"
        },
        {
          "indexed": false,
          "internalType": "address",
          "name": "buyer",
          "type": "address"
        }
      ],
      "name": "ModelPurchased",
      "type": "event"
    },
    {
      "anonymous": false,
      "inputs": [
        {
          "indexed": false,
          "internalType": "uint256",
          "name": "modelId",
          "type": "uint256"
        },
        {
          "indexed": false,
          "internalType": "uint8",
          "name": "rating",
          "type": "uint8"
        },
        {
          "indexed": false,
          "internalType": "address",
          "name": "rater",
          "type": "address"
        }
      ],
      "name": "ModelRated",
      "type": "event"
    },
    {
      "inputs": [
        {
          "internalType": "uint256",
          "name": "",
          "type": "uint256"
        }
      ],
      "name": "models",
      "outputs": [
        {
          "internalType": "string",
          "name": "name",
          "type": "string"
        },
        {
          "internalType": "string",
          "name": "description",
          "type": "string"
        },
        {
          "internalType": "uint256",
          "name": "price",
          "type": "uint256"
        },
        {
          "internalType": "address payable",
          "name": "creator",
          "type": "address"
        },
        {
          "internalType": "uint8",
          "name": "ratingCount",
          "type": "uint8"
        },
        {
          "internalType": "uint256",
          "name": "totalRating",
          "type": "uint256"
        }
      ],
      "stateMutability": "view",
      "type": "function",
      "constant": true
    },
    {
      "inputs": [],
      "name": "owner",
      "outputs": [
        {
          "internalType": "address",
          "name": "",
          "type": "address"
        }
      ],
      "stateMutability": "view",
      "type": "function",
      "constant": true
    },
    {
      "inputs": [
        {
          "internalType": "string",
          "name": "name",
          "type": "string"
        },
        {
          "internalType": "string",
          "name": "description",
          "type": "string"
        },
        {
          "internalType": "uint256",
          "name": "price",
          "type": "uint256"
        }
      ],
      "name": "listModel",
      "outputs": [],
      "stateMutability": "nonpayable",
      "type": "function"
    },
    {
      "inputs": [
        {
          "internalType": "uint256",
          "name": "modelId",
          "type": "uint256"
        }
      ],
      "name": "purchaseModel",
      "outputs": [],
      "stateMutability": "payable",
      "type": "function",
      "payable": true
    },
    {
      "inputs": [
        {
          "internalType": "uint256",
          "name": "modelId",
          "type": "uint256"
        },
        {
          "internalType": "uint8",
          "name": "rating",
          "type": "uint8"
        }
      ],
      "name": "rateModel",
      "outputs": [],
      "stateMutability": "nonpayable",
      "type": "function"
    },
    {
      "inputs": [],
      "name": "withdrawFunds",
      "outputs": [],
      "stateMutability": "nonpayable",
      "type": "function"
    },
    {
      "inputs": [
        {
          "internalType": "uint256",
          "name": "modelId",
          "type": "uint256"
        }
      ],
      "name": "getModelDetails",
      "outputs": [
        {
          "internalType": "string",
          "name": "",
          "type": "string"
        },
        {
          "internalType": "string",
          "name": "",
          "type": "string"
        },
        {
          "internalType": "uint256",
          "name": "",
          "type": "uint256"
        },
        {
          "internalType": "address",
          "name": "",
          "type": "address"
        },
        {
          "internalType": "uint256",
          "name": "",
          "type": "uint256"
        },
        {
          "internalType": "address[]",
          "name": "",
          "type": "address[]"
        }
      ],
      "stateMutability": "view",
      "type": "function",
      "constant": true
    }
  ],
  "bytecode": "0x608060405234801561001057600080fd5b5033600160006101000a81548173ffffffffffffffffffffffffffffffffffffffff021916908373ffffffffffffffffffffffffffffffffffffffff1602179055506115ff806100616000396000f3fe6080604052600436106100705760003560e01c806331fc042f1161004e57806331fc042f1461023d5780636a030ca9146103e65780638da5cb5b14610554578063dc746862146105ab57610070565b806312ee1c0e146100755780631c788a9a146101de57806324600fc314610226575b600080fd5b34801561008157600080fd5b506101dc6004803603606081101561009857600080fd5b81019080803590602001906401000000008111156100b557600080fd5b8201836020820111156100c757600080fd5b803590602001918460018302840111640100000000831117156100e957600080fd5b91908080601f016020809104026020016040519081016040528093929190818152602001838380828437600081840152601f19601f8201169050808301925050505050505091929192908035906020019064010000000081111561014c57600080fd5b82018360208201111561015e57600080fd5b8035906020019184600183028401116401000000008311171561018057600080fd5b91908080601f016020809104026020016040519081016040528093929190818152602001838380828437600081840152601f19601f820116905080830192505050505050509192919290803590602001909291905050506105d9565b005b3480156101ea57600080fd5b506102246004803603604081101561020157600080fd5b8101908080359060200190929190803560ff1690602001909291905050506108bc565b005b34801561023257600080fd5b5061023b610ac4565b005b34801561024957600080fd5b506102766004803603602081101561026057600080fd5b8101908080359060200190929190505050610c9a565b6040518080602001806020018781526020018673ffffffffffffffffffffffffffffffffffffffff1673ffffffffffffffffffffffffffffffffffffffff1681526020018581526020018060200184810384528a818151815260200191508051906020019080838360005b838110156102fc5780820151818401526020810190506102e1565b50505050905090810190601f1680156103295780820380516001836020036101000a031916815260200191505b50848103835289818151815260200191508051906020019080838360005b83811015610362578082015181840152602081019050610347565b50505050905090810190601f16801561038f5780820380516001836020036101000a031916815260200191505b50848103825285818151815260200191508051906020019060200280838360005b838110156103cb5780820151818401526020810190506103b0565b50505050905001995050505050505050505060405180910390f35b3480156103f257600080fd5b5061041f6004803603602081101561040957600080fd5b8101908080359060200190929190505050610f96565b6040518080602001806020018781526020018673ffffffffffffffffffffffffffffffffffffffff1673ffffffffffffffffffffffffffffffffffffffff1681526020018560ff1660ff168152602001848152602001838103835289818151815260200191508051906020019080838360005b838110156104ad578082015181840152602081019050610492565b50505050905090810190601f1680156104da5780820380516001836020036101000a031916815260200191505b50838103825288818151815260200191508051906020019080838360005b838110156105135780820151818401526020810190506104f8565b50505050905090810190601f1680156105405780820380516001836020036101000a031916815260200191505b509850505050505050505060405180910390f35b34801561056057600080fd5b5061056961113c565b604051808273ffffffffffffffffffffffffffffffffffffffff1673ffffffffffffffffffffffffffffffffffffffff16815260200191505060405180910390f35b6105d7600480360360208110156105c157600080fd5b8101908080359060200190929190505050611162565b005b6000811161064f576040517f08c379a000000000000000000000000000000000000000000000000000000000815260040180806020018281038252601f8152602001807f5072696365206d7573742062652067726561746572207468616e207a65726f0081525060200191505060405180910390fd5b60008080549050905060006040518060e001604052808681526020018581526020018481526020013373ffffffffffffffffffffffffffffffffffffffff16815260200160006040519080825280602002602001820160405280156106c35781602001602082028038833980820191505090505b508152602001600060ff16815260200160008152509080600181540180825580915050600190039060005260206000209060070201600090919091909150600082015181600001908051906020019061071d92919061140d565b50602082015181600101908051906020019061073a92919061140d565b506040820151816002015560608201518160030160006101000a81548173ffffffffffffffffffffffffffffffffffffffff021916908373ffffffffffffffffffffffffffffffffffffffff16021790555060808201518160040190805190602001906107a892919061148d565b5060a08201518160050160006101000a81548160ff021916908360ff16021790555060c0820151816006015550507fabc397ccc80c841b298c907d59647c74c037c83fa022c96a656586ade33b74b68185338560405180858152602001806020018473ffffffffffffffffffffffffffffffffffffffff1673ffffffffffffffffffffffffffffffffffffffff168152602001838152602001828103825285818151815260200191508051906020019080838360005b8381101561087957808201518184015260208101905061085e565b50505050905090810190601f1680156108a65780820380516001836020036101000a031916815260200191505b509550505050505060405180910390a150505050565b6000805490508210610936576040517f08c379a00000000000000000000000000000000000000000000000000000000081526004018080602001828103825260148152602001807f4d6f64656c20646f6573206e6f7420657869737400000000000000000000000081525060200191505060405180910390fd5b600080838154811061094457fe5b906000526020600020906007020190503373ffffffffffffffffffffffffffffffffffffffff168160030160009054906101000a900473ffffffffffffffffffffffffffffffffffffffff1673ffffffffffffffffffffffffffffffffffffffff1614156109fd576040517f08c379a00000000000000000000000000000000000000000000000000000000081526004018080602001828103825260298152602001806115a16029913960400191505060405180910390fd5b80600501600081819054906101000a900460ff168092919060010191906101000a81548160ff021916908360ff160217905550508160ff1681600601600082825401925050819055507f4129c8696bb756892ebbda9c4396a685357b1f8eddd505fee0f194e56f8c9a2b838333604051808481526020018360ff1660ff1681526020018273ffffffffffffffffffffffffffffffffffffffff1673ffffffffffffffffffffffffffffffffffffffff168152602001935050505060405180910390a1505050565b600160009054906101000a900473ffffffffffffffffffffffffffffffffffffffff1673ffffffffffffffffffffffffffffffffffffffff163373ffffffffffffffffffffffffffffffffffffffff1614610b6a576040517f08c379a00000000000000000000000000000000000000000000000000000000081526004018080602001828103825260218152602001806115806021913960400191505060405180910390fd5b600047905060008111610be5576040517f08c379a00000000000000000000000000000000000000000000000000000000081526004018080602001828103825260148152602001807f4e6f2066756e647320746f20776974686472617700000000000000000000000081525060200191505060405180910390fd5b3373ffffffffffffffffffffffffffffffffffffffff166108fc829081150290604051600060405180830381858888f19350505050158015610c2b573d6000803e3d6000fd5b507feaff4b37086828766ad3268786972c0cd24259d4c87a80f9d3963a3c3d999b0d3382604051808373ffffffffffffffffffffffffffffffffffffffff1673ffffffffffffffffffffffffffffffffffffffff1681526020018281526020019250505060405180910390a150565b606080600080600060606000805490508710610d1e576040517f08c379a00000000000000000000000000000000000000000000000000000000081526004018080602001828103825260148152602001807f4d6f64656c20646f6573206e6f7420657869737400000000000000000000000081525060200191505060405180910390fd5b6000808881548110610d2c57fe5b906000526020600020906007020190506000808260050160009054906101000a900460ff1660ff1611610d60576000610d83565b8160050160009054906101000a900460ff1660ff16826006015481610d8157fe5b045b9050816000018260010183600201548460030160009054906101000a900473ffffffffffffffffffffffffffffffffffffffff168486600401858054600181600116156101000203166002900480601f016020809104026020016040519081016040528092919081815260200182805460018160011615610100020316600290048015610e515780601f10610e2657610100808354040283529160200191610e51565b820191906000526020600020905b815481529060010190602001808311610e3457829003601f168201915b50505050509550848054600181600116156101000203166002900480601f016020809104026020016040519081016040528092919081815260200182805460018160011615610100020316600290048015610eed5780601f10610ec257610100808354040283529160200191610eed565b820191906000526020600020905b815481529060010190602001808311610ed057829003601f168201915b5050505050945082925080805480602002602001604051908101604052809291908181526020018280548015610f7857602002820191906000526020600020905b8160009054906101000a900473ffffffffffffffffffffffffffffffffffffffff1673ffffffffffffffffffffffffffffffffffffffff1681526020019060010190808311610f2e575b50505050509050975097509750975097509750505091939550919395565b60008181548110610fa357fe5b9060005260206000209060070201600091509050806000018054600181600116156101000203166002900480601f01602080910402602001604051908101604052809291908181526020018280546001816001161561010002031660029004801561104f5780601f106110245761010080835404028352916020019161104f565b820191906000526020600020905b81548152906001019060200180831161103257829003601f168201915b505050505090806001018054600181600116156101000203166002900480601f0160208091040260200160405190810160405280929190818152602001828054600181600116156101000203166002900480156110ed5780601f106110c2576101008083540402835291602001916110ed565b820191906000526020600020905b8154815290600101906020018083116110d057829003601f168201915b5050505050908060020154908060030160009054906101000a900473ffffffffffffffffffffffffffffffffffffffff16908060050160009054906101000a900460ff16908060060154905086565b600160009054906101000a900473ffffffffffffffffffffffffffffffffffffffff1681565b60008054905081106111dc576040517f08c379a00000000000000000000000000000000000000000000000000000000081526004018080602001828103825260148152602001807f4d6f64656c20646f6573206e6f7420657869737400000000000000000000000081525060200191505060405180910390fd5b60008082815481106111ea57fe5b9060005260206000209060070201905080600201543414611273576040517f08c379a00000000000000000000000000000000000000000000000000000000081526004018080602001828103825260158152602001807f496e636f727265637420616d6f756e742073656e74000000000000000000000081525060200191505060405180910390fd5b3373ffffffffffffffffffffffffffffffffffffffff168160030160009054906101000a900473ffffffffffffffffffffffffffffffffffffffff1673ffffffffffffffffffffffffffffffffffffffff161415611339576040517f08c379a000000000000000000000000000000000000000000000000000000000815260040180806020018281038252601e8152602001807f43616e6e6f7420707572636861736520796f7572206f776e206d6f64656c000081525060200191505060405180910390fd5b80600401339080600181540180825580915050600190039060005260206000200160009091909190916101000a81548173ffffffffffffffffffffffffffffffffffffffff021916908373ffffffffffffffffffffffffffffffffffffffff1602179055507fc8581808129c51c0416692a5ea1b58e080ae8f21e384eefe2f2dc85d231d12ba8233604051808381526020018273ffffffffffffffffffffffffffffffffffffffff1673ffffffffffffffffffffffffffffffffffffffff1681526020019250505060405180910390a15050565b828054600181600116156101000203166002900490600052602060002090601f016020900481019282601f1061144e57805160ff191683800117855561147c565b8280016001018555821561147c579182015b8281111561147b578251825591602001919060010190611460565b5b5090506114899190611517565b5090565b828054828255906000526020600020908101928215611506579160200282015b828111156115055782518260006101000a81548173ffffffffffffffffffffffffffffffffffffffff021916908373ffffffffffffffffffffffffffffffffffffffff160217905550916020019190600101906114ad565b5b509050611513919061153c565b5090565b61153991905b8082111561153557600081600090555060010161151d565b5090565b90565b61157c91905b8082111561157857600081816101000a81549073ffffffffffffffffffffffffffffffffffffffff021916905550600101611542565b5090565b9056fe4f6e6c7920746865206f776e65722063616e2077697468647261772066756e64734d6f64656c2063726561746f722063616e6e6f742072617465207468656972206f776e206d6f64656ca26469706673582212200cb58925244d0a08bf2be0d8631691747777fb880eb4bc221c219c41b252191864736f6c63430006000033",
  "source": "// SPDX-License-Identifier: MIT\npragma solidity >=0.6.0 <0.9.0;\n\ncontract AImodelMarketplace {\n    struct Model {\n        string name;\n        string description;\n        uint256 price;\n        address payable creator;\n        address[] buyers; // Store buyers' addresses\n        uint8 ratingCount;\n        uint256 totalRating;\n    }\n\n    Model[] public models;\n    address public owner;\n\n    event ModelListed(uint256 modelId, string name, address creator, uint256 price);\n    event ModelPurchased(uint256 modelId, address buyer);\n    event ModelRated(uint256 modelId, uint8 rating, address rater);\n    event FundsWithdrawn(address owner, uint256 amount);\n\n    constructor() public {\n        owner = msg.sender; // Set the contract creator as the owner\n    }\n\n    // Function to list a new AI model\n    function listModel(string memory name, string memory description, uint256 price) public {\n        require(price > 0, \"Price must be greater than zero\");\n\n        uint256 modelId = models.length;\n        models.push(Model({\n            name: name,\n            description: description,\n            price: price,\n            creator: payable(msg.sender), // Correctly initialize as payable\n            buyers: new address[](0), // Initialize buyers array correctly\n            ratingCount: 0,\n            totalRating: 0\n        }));\n\n        emit ModelListed(modelId, name, msg.sender, price);\n    }\n\n    function purchaseModel(uint256 modelId) public payable {\n        require(modelId < models.length, \"Model does not exist\");\n        Model storage model = models[modelId];\n        require(msg.value == model.price, \"Incorrect amount sent\");\n        require(model.creator != msg.sender, \"Cannot purchase your own model\");\n\n        model.buyers.push(msg.sender);  // Store buyer's address\n        emit ModelPurchased(modelId, msg.sender);\n    }\n\n    \n\n    // Function to rate a model\n    function rateModel(uint256 modelId, uint8 rating) public {\n        require(modelId < models.length, \"Model does not exist\");\n        Model storage model = models[modelId];\n\n        require(model.creator != msg.sender, \"Model creator cannot rate their own model\");\n\n        model.ratingCount++;\n        model.totalRating += rating;\n\n        emit ModelRated(modelId, rating, msg.sender);\n    }\n\n    // Function to withdraw funds\n    function withdrawFunds() public {\n        require(msg.sender == owner, \"Only the owner can withdraw funds\");\n        uint256 balance = address(this).balance;\n        require(balance > 0, \"No funds to withdraw\");\n\n        // Transfer the contract balance to the owner\n        payable(msg.sender).transfer(balance);\n        emit FundsWithdrawn(msg.sender, balance);\n    }  \n\n    // Function to get model details\n    function getModelDetails(uint256 modelId) public view returns (string memory, string memory, uint256, address, uint256, address[] memory) {\n        require(modelId < models.length, \"Model does not exist\");\n        Model storage model = models[modelId];\n        uint256 averageRating = model.ratingCount > 0 ? model.totalRating / model.ratingCount : 0;\n\n        return (model.name, model.description, model.price, model.creator, averageRating, model.buyers);\n    }\n}\n",
  "sourcePath": "/home/aspandyar/Projects/AI_Model_Marketplace_dApp/contracts/AIModelMarketplace.sol",
  "compiler": {
    "name": "solc",
    "version": "0.6.0+commit.26b70077.Emscripten.clang"
  },
  "schemaVersion": "3.4.16",
  "updatedAt": "2024-09-30T04:14:01.952Z",
  "networkType": "ethereum",
  "devdoc": {
    "methods": {}
  },
  "userdoc": {
    "methods": {}
  }
}